:020000040000FA
:0400000017EF3FF0C7
:107E2A00AE50120000011AEF3FF0800E0F6E250EC1
:107E3A00106E000E116E000E126E42EC3FF0949E10
:107E4A0015EC3FF0176E310E1718D8A42FEF3FF03C
:107E5A0031EF3FF034EF3FF08B8E25EF3FF0320EDB
:107E6A001718D8A43BEF3FF03DEF3FF025EF3FF066
:107E7A008B9E25EF3FF000EF00F0949C948E0FC08C
:107E8A0005F010C006F011C007F012C008F0000E8D
:107E9A00016E2D0E026E310E036E010E046E7AEC27
:107EAA003FF001C013F002C014F003C015F004C083
:107EBA0016F013C001F014C002F015C003F016C08A
:107ECA0004F0400E056E000E066E000E076E000EE0
:107EDA00086E7AEC3FF00104AF6EAC94AC98AB8EAE
:107EEA00AC9CAC8AAB9CAB881200000E0A6E08BE32
:107EFA0083EF3FF081EF3FF08DEF3FF0081E071E42
:107F0A00061E056C000E062207220822010E0A6EC2
:107F1A0004BE94EF3FF092EF3FF09EEF3FF0041E55
:107F2A00031E021E016C000E022203220422010E0D
:107F3A000A1A000E0B6E000E0C6E000E0D6E000E6D
:107F4A000E6E0550061007100810D8B4AFEF3FF0B8
:107F5A00B1EF3FF0E7EF3FF0010E096EBBEF3FF0E4
:107F6A00D8900536063607360836092A08AEC0EF15
:107F7A003FF0C2EF3FF0B5EF3FF0D8900B360C362A
:107F8A000D360E360550015C06500258075003584C
:107F9A0008500458D8A0D4EF3FF0D6EF3FF0DFEFF7
:107FAA003FF00550015E0650025A0750035A085026
:107FBA00045A0B80D8900832073206320532092E4D
:107FCA00C2EF3FF00A50D8B4EDEF3FF0EFEF3FF0C9
:107FDA00F7EF3FF00E1E0D1E0C1E0B6C000E0C224E
:107FEA000D220E220BC001F00CC002F00DC003F0EE
:067FFA000EC004F01200AD
:020000040020DA
:08000000FFFFFFFFFFFFFFFF00
:020000040030CA
:0E0000000088181EFF0181FF0FC00FE00F40A7
:00000001FF
