:020000040000FA
:0400000053EF1DF0AD
:100800000054656E73696F6E20252E32662020209D
:100810002000494E46004E414E00696E66006E61F2
:100820006E006C660000000E00017B6F000E7A6F98
:1008300044C08CF045C08DF046C08EF047C08FF0AC
:100840008FBF27EF04F025EF04F03DEF04F0000E1A
:100850007B6F010E7A6F8CC001F08DC002F08EC0EC
:1008600003F08FC004F0EDEC1CF001C08CF002C06E
:100870008DF003C08EF004C08FF0000E0001936F66
:10088000000E926FC6C07EF0C7C07FF07A517B1118
:10089000D8A44DEF04F04FEF04F056EF04F0CAA5D2
:1008A00054EF04F056EF04F070EF04F07A517B112E
:1008B000D8A45DEF04F05FEF04F065EF04F0000EE4
:1008C000616F2B0E606F69EF04F0000E616F2D0EEB
:1008D000606F60C000F1924B932B7E07D8A07F071A
:1008E0008CC001F08DC002F08EC003F08FC004F008
:1008F0009BEC18F001040210D8A481EF04F083EF00
:1009000004F0DAEF04F0BF0E496EFF0E4A6E485055
:100910004B6E4C6A49504B264A504C224C500AE1CF
:100920001A0E4B5CD8A097EF04F09AEF04F0010E7A
:100930009BEF04F0000E0001626F636B6251631164
:10094000D8B4A5EF04F0A7EF04F0B5EF04F0000E63
:100950009225016E010E9321026E120E036E080E97
:10096000046E0CEC1CF0C1EF04F0000E9225016E39
:10097000010E9321026E1A0E036E080E046E0CEC2B
:100980001CF00001FD0E7E27FF0E7F2342C011F0F8
:1009900043C012F0000E136E010E146E7EC015F0EF
:1009A0007FC016F0EAEC19F011C042F012C043F01B
:1009B0003EEF0AF08CC001F08DC002F08EC003F053
:1009C0008FC004F09BEC18F001500210D8A4EBEF9C
:1009D00004F0EDEF04F02DEF05F0BF0E496EFF0EB1
:1009E0004A6E48504B6E4C6A49504B264A504C2236
:1009F0004C500AE11A0E4B5CD8A001EF05F004EF51
:100A000005F0010E05EF05F0000E0001646F656B47
:100A100064516511D8B40FEF05F011EF05F01FEF29
:100A200005F0000E9225016E010E9321026E160E46
:100A3000036E080E046E0CEC1CF0C1EF04F0000E07
:100A40009225016E010E9321026E1E0E036E080E9A
:100A5000046E0CEC1CF0C1EF04F0000E0001946F6A
:100A6000000E956F800E966F3F0E976F000E916F80
:100A7000000E906F8CC001F08DC002F08EC003F0AC
:100A80008FC004F0000E056E000E066E000E076E9D
:100A9000000E086E07EC1BF0D8B051EF05F053EFD5
:100AA00005F0D6EF05F072EF05F094C001F095C0A7
:100AB00002F096C003F097C004F0000E056E000E21
:100AC000066E200E076E410E086ED4EC0EF001C0CB
:100AD00094F002C095F003C096F004C097F00001B6
:100AE000904B912B8CC01AF08DC01BF08EC01CF067
:100AF0008FC01DF0000E056E000E066E200E076EF4
:100B0000410E086E94C001F095C002F096C003F04B
:100B100097C004F0D4EC0EF001C01EF002C01FF02C
:100B200003C020F004C021F019EC18F0D8B09BEFFE
:100B300005F09DEF05F055EF05F0BDEF05F094C011
:100B400015F095C016F096C017F097C018F0000E7B
:100B5000196E000E1A6E200E1B6E410E1C6EE9EC13
:100B600010F015C094F016C095F017C096F018C09C
:100B700097F000019007D8A091078CC01AF08DC0A3
:100B80001BF08EC01CF08FC01DF094C01EF095C0ED
:100B90001FF096C020F097C021F019EC18F0D8A0F3
:100BA000D4EF05F0D6EF05F09FEF05F048C007F051
:100BB000086ADCEC1BF007500001816F81C080F0F7
:100BC000670E8119D8A4E7EF05F0E9EF05F00FEF04
:100BD00006F0C851C911D8A4F0EF05F0F2EF05F006
:100BE000F6EF05F0000EC96F010EC86FC9BF03EF25
:100BF00006F0C95106E1C805D8B001EF06F003EFD1
:100C000006F009EF06F0000E7D6F060E7C6F18EF00
:100C100006F0C8C07CF0C9C07DF018EF06F0C9BF6F
:100C200014EF06F016EF06F003EF06F009EF06F0FA
:100C3000670E8119D8A41FEF06F021EF06F050EFE0
:100C400006F091AF2FEF06F0FC0E905DFF0E91596C
:100C5000D8A02DEF06F02FEF06F04EEF06F0FF0EB6
:100C6000496EFF0E4A6E7CC04BF07DC04CF049507F
:100C70004B264A504C2290514B5C4C50800A4D6E92
:100C80009151800A4D58D8A048EF06F04AEF06F07F
:100C90004EEF06F0660E806F50EF06F0650E806F27
:100CA0007CC072F07DC073F0670E8119D8A45BEF31
:100CB00006F05DEF06F06DEF06F0660E8019D8A421
:100CC00064EF06F066EF06F06FEF06F091BF6DEF90
:100CD00006F06BEF06F06FEF06F0724B732B660EAB
:100CE0008019D8A476EF06F078EF06F098EF06F0BA
:100CF00091BF7FEF06F07DEF06F08BEF06F0000E60
:100D0000946F000E956F800E966F3F0E976F000EDA
:100D1000916F000E906F670E8119D8B492EF06F0B4
:100D200094EF06F098EF06F09051722791517323DB
:100D3000000E8B6F000E8A6F8CC082F08DC083F026
:100D40008EC084F08FC085F094C074F095C075F0AB
:100D500096C076F097C077F029EF07F082C015F0C3
:100D600083C016F084C017F085C018F094C019F045
:100D700095C01AF096C01BF097C01CF0E9EC10F07B
:100D800015C02EF016C02FF017C030F018C031F08B
:100D9000B6EC12F02EC086F02FC087F030C088F07D
:100DA00031C089F086C001F087C002F088C003F02E
:100DB00089C004F096EC17F001C078F002C079F019
:100DC00082C01AF083C01BF084C01CF085C01DF0E7
:100DD00094C005F095C006F096C007F097C008F0E3
:100DE00086C001F087C002F088C003F089C004F01B
:100DF000D4EC0EF001C01EF002C01FF003C020F0C2
:100E000004C021F08CEC1CF01AC082F01BC083F0EF
:100E10001CC084F01DC085F094C015F095C016F07C
:100E200096C017F097C018F0000E196E000E1A6EDB
:100E3000200E1B6E410E1C6EE9EC10F015C094F0F4
:100E400016C095F017C096F018C097F000018A4BB5
:100E50008B2B72518A5D8B51800A496E7351800AC7
:100E60004958D8A036EF07F038EF07F0AEEF06F09C
:100E700094C001F095C002F096C003F097C004F052
:100E8000000E056E000E066EA00E076E400E086E78
:100E9000D4EC0EF001C086F002C087F003C088F0E9
:100EA00004C089F082C01AF083C01BF084C01CF01B
:100EB00085C01DF086C01EF087C01FF088C020F0DE
:100EC00089C021F019EC18F0D8B069EF07F06BEF8A
:100ED00007F076EF07F0000E0001866F000E876FB7
:100EE000000E886F000E896F9FEF07F082C001F03F
:100EF00083C002F084C003F085C004F086C005F012
:100F000087C006F088C007F089C008F007EC1BF026
:100F1000D8A08DEF07F08FEF07F09FEF07F00001EB
:100F200078B195EF07F097EF07F09FEF07F0000E0D
:100F3000866F000E876F000E886F000E896F8CC061
:100F400001F08DC002F08EC003F08FC004F086C0A7
:100F500005F087C006F088C007F089C008F03FECB4
:100F60000AF001C082F002C083F003C084F004C024
:100F700085F082C01AF083C01BF084C01CF085C0CD
:100F80001DF0000E056E000E066E200E076E410E5F
:100F9000086E74C001F075C002F076C003F077C02F
:100FA00004F0D4EC0EF001C01EF002C01FF003C02C
:100FB00020F004C021F019EC18F0D8A0E2EF07F0FF
:100FC000E4EF07F00DEF08F00001904B912B74C097
:100FD00001F075C002F076C003F077C004F0000E97
:100FE000056E000E066E200E076E410E086ED4ECE4
:100FF0000EF001C074F002C075F003C076F004C0BA
:1010000077F0660E00018019D8A409EF08F00BEF05
:1010100008F00DEF08F0724B732B74C094F075C09C
:1010200095F076C096F077C097F0650E00018019B4
:10103000D8B41DEF08F01FEF08F025EF08F090C0BE
:1010400070F091C071F029EF08F0000E716F000E82
:10105000706F000E6F6F000E6E6F000E6D6F000EE2
:101060006C6F000E8B6F000E8A6F24EF09F082C048
:1010700015F083C016F084C017F085C018F094C036
:1010800019F095C01AF096C01BF097C01CF0E9EC5F
:1010900010F015C02EF016C02FF017C030F018C099
:1010A00031F0B6EC12F02EC086F02FC087F030C0C1
:1010B00088F031C089F086C001F087C002F088C096
:1010C00003F089C004F096EC17F001C078F002C07C
:1010D00079F00001CAB96FEF08F071EF08F08EEFF8
:1010E00008F078517911D8A478EF08F07AEF08F079
:1010F0008EEF08F0670E8119D8A481EF08F083EF16
:1011000008F08EEF08F071BF8AEF08F088EF08F062
:101110008EEF08F06C4B6D2BD8EF08F06E516F110D
:10112000D8A495EF08F097EF08F0C1EF08F071BF71
:101130009EEF08F09CEF08F0C1EF08F0000E92253A
:10114000D96E010E9321DA6E2E0EDF6E924B932B29
:101150007E07D8A07F07000E6F6F010E6E6FC1EF84
:1011600008F0000E9225D96E010E9321DA6E300E32
:10117000DF6E924B932B7E07D8A07F076C07D8A019
:101180006D076C516D11D8A4C8EF08F0CAEF08F0D4
:10119000B1EF08F0000E9225D96E010E9321DA6EA0
:1011A0007851300FDF6E924B932B7E07D8A07F07CC
:1011B00082C01AF083C01BF084C01CF085C01DF0F3
:1011C00094C005F095C006F096C007F097C008F0EF
:1011D00086C001F087C002F088C003F089C004F027
:1011E000D4EC0EF001C01EF002C01FF003C020F0CE
:1011F00004C021F08CEC1CF01AC082F01BC083F0FC
:101200001CC084F01DC085F094C015F095C016F088
:1012100096C017F097C018F0000E196E000E1A6EE7
:10122000200E1B6E410E1C6EE9EC10F015C094F000
:1012300016C095F017C096F018C097F0000170071F
:10124000D8A071078A4B8B2B72518A5D8B51800A13
:10125000496E7351800A4958D8B031EF09F033EF25
:1012600009F041EF09F093BF3FEF09F0935109E115
:101270004B0E925DD8A03FEF09F041EF09F037EF38
:1012800008F06E516F11D8A448EF09F04AEF09F049
:101290005BEF09F0CAA94FEF09F051EF09F05BEFDE
:1012A00009F0000E9225D96E010E9321DA6E2E0EF2
:1012B000DF6E924B932B000E9225D96E010E932177
:1012C000DA6E000EDF6E650E8019D8A46AEF09F0A1
:1012D0006CEF09F0C6EF04F0000E8B6F4F0E8A6FB3
:1012E000000E8A25D96E010E8B21DA6E000EDF6E9C
:1012F000000E7B6F000E7A6F91BF83EF09F081EFD4
:1013000009F08BEF09F0000E7B6F010E7A6F906D84
:10131000911FD8B0912B000E7D6F020E7C6FBCEF39
:1013200009F08A07D8A08B07000E8A25D96E010E16
:101330008B21DA6E90C001F091C002F0000E046EB5
:101340000A0E036EAFEC1AF00150300FDF6E90C042
:1013500001F091C002F0000E046E0A0E036E4DEC17
:101360001AF001C090F002C091F000017C07D8A0F3
:101370007D077E07D8A07F0790519111D8A4C3EFB5
:1013800009F0C5EF09F091EF09F07DBFD2EF09F048
:101390007D5106E17C05D8B0D0EF09F0D2EF09F01D
:1013A00091EF09F08A07D8A08B077A517B11D8A456
:1013B000DCEF09F0DEEF09F0E4EF09F0000E676FF3
:1013C0002B0E666FE8EF09F0000E676F2D0E666F4B
:1013D000000E8A25D96E010E8B21DA6E66C0DFFF02
:1013E0007E07D8A07F078A07D8A08B07BF0E496E5B
:1013F000FF0E4A6E48504B6E4C6A49504B264A507D
:101400004C224C500AE11A0E4B5CD8A00AEF0AF0AD
:101410000DEF0AF0010E0EEF0AF0000E6A6F6B6B13
:101420006A516B11D8A417EF0AF019EF0AF01FEFF9
:101430000AF0000E696F650E686F23EF0AF0000E68
:10144000696F450E686F000E8A25D96E010E8B21DB
:10145000DA6E68C0DFFF7E07D8A07F07000E9225F6
:10146000016E010E9321026E000E8A25036E010E9D
:101470008B21046E0CEC1CF0C6EF04F0120004503B
:10148000800B0D6E045004240F6E03AE4AEF0AF079
:101490004CEF0AF04DEF0AF00F800F50D8B453EF25
:1014A0000AF055EF0AF06AEF0AF00F28D8A45BEFB4
:1014B0000AF05DEF0AF065EF0AF0000E016E000E13
:1014C000026E000E036E000E046E038E000E046E9C
:1014D00072EF0AF0000E016E000E026E000E036E37
:1014E000000E046E0850800B0E6E0D500E18D8B40E
:1014F0007CEF0AF07EEF0AF07FEF0AF00D8C0850C7
:1015000008240E6E07AE87EF0AF089EF0AF08AEF23
:101510000AF00E800E50D8B490EF0AF092EF0AF065
:10152000A7EF0AF00E28D8A498EF0AF09AEF0AF075
:10153000A2EF0AF0000E056E000E066E000E076E9A
:10154000000E086E078E000E086EAFEF0AF0000E58
:10155000056E000E066E000E076E000E086E0F5030
:101560000E5CD8B0B6EF0AF0B8EF0AF0DFEF0AF081
:101570000DACBDEF0AF0BFEF0AF0C1EF0AF0800E2C
:101580000D1A0FC010F00EC00FF010C00EF001C009
:1015900010F005C001F010C005F002C010F006C048
:1015A00002F010C006F003C010F007C003F010C036
:1015B00007F004C010F008C004F010C008F0000EDE
:1015C000106E0F500EC009F00A6A095E000E0A5A2A
:1015D0000ABEF4EF0AF00A5009E11A0E095CD8A01D
:1015E000F4EF0AF0F6EF0AF02DEF0BF001500210C5
:1015F00003100410D8A4FFEF0AF002EF0BF0010E65
:1016000003EF0BF0000E106E000E016E000E026E66
:10161000000E036E000E046E0EC00FF036EF0BF0DE
:1016200010A015EF0BF017EF0BF01DEF0BF0D8909B
:1016300010300109106E1FEF0BF0D890103201A08E
:1016400024EF0BF026EF0BF027EF0BF0108E043495
:1016500004320332023201320F2A0E500F5CD8A03E
:1016600034EF0BF036EF0BF010EF0BF00DBC3BEF4F
:101670000BF03DEF0BF07DEF0BF00F50D8A443EFD4
:101680000BF045EF0BF04FEF0BF0000E016E000E6C
:10169000026E000E036E000E046E9EEF0CF00550FD
:1016A000012606500222075003220850042204A0FB
:1016B0005CEF0BF05EEF0BF00AEF0CF010A063EFA5
:1016C0000BF065EF0BF06BEF0BF0D89010300109C9
:1016D000106E6DEF0BF0D890103201A072EF0BF08E
:1016E00074EF0BF075EF0BF0108E043404320332FC
:1016F000023201320F2A0AEF0CF00550015C06504D
:101700000258075003580450800A096E0850800A96
:101710000958D8B08EEF0BF090EF0BF0BBEF0BF049
:101720000150055C096E025006580A6E03500758B6
:101730000B6E045008580C6EFF0E0924016EFF0E4C
:101740000A20026EFF0E0B20036EFF0E0C20046EAB
:10175000800E0D1A106C1050D8A4B1EF0BF0B3EF3F
:101760000BF0C3EF0BF0010E0126000E0222032244
:101770000422C3EF0BF00550015E0650025A0750D9
:10178000035A0850045A0150021003100410D8A440
:10179000CCEF0BF0CEEF0BF003EF0CF01050D8A411
:1017A000D4EF0BF0D6EF0BF003EF0CF0000E016E50
:1017B000000E026E000E036E000E046E9EEF0CF023
:1017C000D890013602360336043610AEEAEF0BF03D
:1017D000ECEF0BF0EDEF0BF0018010A0F2EF0BF04F
:1017E000F4EF0BF0F8EF0BF0D8801036FAEF0BF0B7
:1017F000D89010360F50D8B400EF0CF002EF0CF078
:1018000003EF0CF00F0603AE08EF0CF00AEF0CF03C
:10181000E0EF0BF0000E0E6E10AE11EF0CF013EFB8
:101820000CF02BEF0CF010C009F07F0E0916D8B4A5
:101830001CEF0CF01EEF0CF022EF0CF0010E0E6E00
:101840002BEF0CF001A027EF0CF029EF0CF02BEFA1
:101850000CF01EEF0CF00E50D8B431EF0CF033EF5B
:101860000CF05EEF0CF0010E0126000E02220322A6
:10187000042204A03EEF0CF040EF0CF05EEF0CF001
:1018800001C009F002C00AF003C00BF004C00CF064
:101890000C340C320B320A32093209C001F00AC092
:1018A00002F00BC003F00CC004F00F28D8B45BEFBB
:1018B0000CF05DEF0CF05EEF0CF00F2A0F28D8B49F
:1018C00064EF0CF066EF0CF06EEF0CF00F50D8A444
:1018D0006CEF0CF06EEF0CF080EF0CF0000E016E70
:1018E000000E026E000E036E000E046E0F50D8A4A0
:1018F0007CEF0CF07EEF0CF080EF0CF0000E0D6E24
:101900000FA085EF0CF087EF0CF08AEF0CF0038E40
:101910008BEF0CF0039ED8900F30046E0DAE93EF5A
:101920000CF095EF0CF096EF0CF0048E01C001F076
:1019300002C002F003C003F004C004F0120050C063
:10194000D9FF51C0DAFFDECFF6FFDDCFF7FF080089
:10195000F550250AD8A4AFEF0CF0B1EF0CF0B8EFBA
:101960000EF050C0D9FF51C0DAFFDE2A000EDD2292
:10197000000E0001C76F000EC66FC6C0CAF0C7C018
:10198000CBF0C869C96950C0D9FF51C0DAFFDECFBA
:10199000F6FFDDCFF7FF0800F5502E0AD8A4D3EFED
:1019A0000CF0D5EF0CF053EF0DF0000EC96F000EE8
:1019B000C86F50C0D9FF51C0DAFFDE2A000EDD2209
:1019C00050C0D9FF51C0DAFFDECFF6FFDDCFF7FF01
:1019D0000800F5502A0AD8A4F0EF0CF0F2EF0CF052
:1019E0000FEF0DF050C0D9FF51C0DAFFDE2A000E14
:1019F000DD2252C0D9FF53C0DAFFDFCF54F0020E10
:101A0000DE26DFCF55F0000EDD2254C0D9FF55C0D1
:101A1000DAFFDECFC8F0DDCFC9F053EF0DF050C0D4
:101A2000D9FF51C0DAFFDECF08F0DDCF09F099EC25
:101A300014F008C0C8F009C0C9F026EF0DF050C07E
:101A4000D9FF51C0DAFFDE2A000EDD22D00E546E1F
:101A5000FF0E556E50C0D9FF51C0DAFFDECFF6FF42
:101A6000DDCFF7FF0800F550566E576A54505626E2
:101A70005550572257500AE10A0E565CD8A043EF42
:101A80000DF046EF0DF0010E47EF0DF0000E0001D6
:101A9000986F996B98519911D8A451EF0DF053EFAD
:101AA0000DF01FEF0DF050C0D9FF51C0DAFFDECFAF
:101AB000F6FFDDCFF7FF0800F550076E086ADCEC93
:101AC0001BF007500001A06FA051D8B46AEF0DF0D1
:101AD0006CEF0DF0A6EF0DF050C0D9FF51C0DAFF4A
:101AE000DECF54F0DDCF55F0010E5426000E552206
:101AF00054C0F6FF55C0F7FF0800F550076E086A9E
:101B0000DCEC1BF007500001A16FA151D8B48BEFA2
:101B10000DF08DEF0DF0A6EF0DF050C0D9FF51C0C4
:101B2000DAFFDECF54F0DDCF55F0020E5426000E62
:101B3000552254C0F6FF55C0F7FF0800F550076E58
:101B4000086ADCEC1BF007500001A26F660EA019BA
:101B5000D8A4ADEF0DF0AFEF0DF0EFEF0DF050C0EA
:101B6000D9FF51C0DAFFDECFF6FFDDCFF7FF080067
:101B7000F5CFA3F050C0D9FF51C0DAFFDE2A000E26
:101B8000DD2252C0D9FF53C0DAFFDFCF54F0040E7C
:101B9000DE26DFCF55F0000EDD2254C0D9FF55C040
:101BA000DAFFDECF9CF0DECF9DF0DECF9EF0DECF01
:101BB0009FF04EC042F04FC043F09CC044F09DC027
:101BC00045F09EC046F09FC047F0A3C048F013EC1C
:101BD00004F042C04EF043C04FF0D3EF0EF0A00E21
:101BE000016E000E026E220E036E080E046E000ED1
:101BF000066E020E056E1AEC19F001500210D8A400
:101C000004EF0EF006EF0EF082EF0EF050C0D9FF99
:101C100051C0DAFFDECF54F0DDCF55F0010E54266F
:101C2000000E552254C0F6FF55C0F7FF0800F5CF4F
:101C3000A3F0BF0E546EFF0E556E50C0D9FF51C0B9
:101C4000DAFFDECFF6FFDDCFF7FF0800F550566E66
:101C5000576A545056265550572257500AE11A0ECB
:101C6000565CD8A036EF0EF039EF0EF0010E3AEFC9
:101C70000EF0000E00019A6F9B6B9A519B11D8B425
:101C800044EF0EF046EF0EF060EF0EF052C0D9FFB9
:101C900053C0DAFFDFCF54F0040EDE26DFCF55F05D
:101CA000000EDD2254C0D9FF55C0DAFFDECF9CF014
:101CB000DECF9DF0DECF9EF0DECF9FF078EF0EF00E
:101CC00052C0D9FF53C0DAFFDFCF54F0040EDE2636
:101CD000DFCF55F0000EDD2254C0D9FF55C0DAFF2A
:101CE000DECF9CF0DECF9DF0DECF9EF0DECF9FF00A
:101CF000020E50C0D9FF51C0DAFFDE26000EDD22F1
:101D0000D9EF0DF050C0D9FF51C0DAFFDECFF6FF9A
:101D1000DDCFF7FF0800F550250AD8A492EF0EF0AA
:101D200094EF0EF0ABEF0EF050C0D9FF51C0DAFFC8
:101D3000DE2A000EDD22000E026E250E016E4EC060
:101D400003F04FC004F085EC19F0000E4F6E010E49
:101D50004E6ED3EF0EF050C0D9FF51C0DAFFDE2A2D
:101D6000000EDD22000E4F6E000E4E6ED3EF0EF011
:101D700050C0D9FF51C0DAFFDECFF6FFDDCFF7FF4D
:101D80000800F550016E026A4EC003F04FC004F027
:101D900085EC19F050C0D9FF51C0DAFFDE2A000EE1
:101DA000DD22A5EF0EF012000450800B0D6E0450E2
:101DB0000424136E03AEDFEF0EF0E1EF0EF0E2EF5E
:101DC0000EF013801350D8B4E8EF0EF0EAEF0EF0E7
:101DD000FDEF0EF01328D8A4F0EF0EF0F2EF0EF0A6
:101DE000FAEF0EF0000E016E000E026E000E036E92
:101DF000000E046E038E05EF0FF0000E016E000E54
:101E0000026E000E036E000E046E0850800B0D1A59
:101E100008500824126E07AE10EF0FF012EF0FF00B
:101E200013EF0FF012801250D8B419EF0FF01BEF20
:101E30000FF02EEF0FF01228D8A421EF0FF023EFB0
:101E40000FF02BEF0FF0000E056E000E066E000E69
:101E5000076E000E086E078E36EF0FF0000E056E4F
:101E6000000E066E000E076E000E086E1250D8B4FB
:101E70003CEF0FF03EEF0FF046EF0FF01350D8A4F9
:101E800044EF0FF046EF0FF050EF0FF0000E016E31
:101E9000000E026E000E036E000E046EE8EF10F0EE
:101EA00007500102F3CF18F0F4CF19F018500E6E5E
:101EB0000F6A106A116A1950146E156A166A176A49
:101EC00006500202F3CF18F0F4CF19F018500E2686
:101ED000000E0F221022112219501426000E152276
:101EE0001622172205500302F3CF18F0F4CF19F091
:101EF00018500E26000E0F221022112219501426FF
:101F0000000E15221622172210C011F00FC010F07B
:101F10000EC00FF00E6A05500202F3CF18F0F4CF96
:101F200019F018500E2619500F22000E1022000E24
:101F3000112206500102F3CF18F0F4CF19F0185017
:101F40000E2619500F22000E1022000E112210C072
:101F500011F00FC010F00EC00FF00E6A0550010214
:101F6000F3CF18F0F4CF19F018500E2619500F22A5
:101F7000000E1022000E112207500202F3CF18F0BB
:101F8000F4CF19F01850142619501522000E1622FD
:101F9000000E172206500302F3CF18F0F4CF19F009
:101FA0001850142619501522000E1622000E172262
:101FB00007500302F3CF18F0F4CF19F01850096E50
:101FC00019500A6E0B6A0C6A0BC00CF00AC00BF0B9
:101FD00009C00AF0096A095014260A5015220B504C
:101FE00016220C5017220EC009F00FC00AF010C0C4
:101FF0000BF011C00CF0190E03EF10F0D8900C325A
:102000000B320A320932E82EFEEF0FF00950142687
:102010000A5015220B5016220C50172210C011F036
:102020000FC010F00EC00FF00E6A125013C009F06E
:102030000A6A0926000E0A22820E0924186EFF0E73
:102040000A20196E39EF10F0D8901436153616366E
:10205000173611AE2EEF10F030EF10F031EF10F018
:102060001480D8900E360F36103611361806D8A0C8
:10207000190616AE3EEF10F040EF10F024EF10F00E
:10208000000E126E11AE47EF10F049EF10F06DEF39
:1020900010F0FF0E0E14096EFF0E0F140A6EFF0EE5
:1020A00010140B6E7F0E11140C6E09500A100B10D9
:1020B0000C10D8B45EEF10F060EF10F064EF10F089
:1020C000010E126E6DEF10F014A069EF10F06BEFBF
:1020D00010F06DEF10F060EF10F01250D8B473EF05
:1020E00010F075EF10F099EF10F0010E1426000EAD
:1020F00015221622172217A080EF10F082EF10F0A1
:1021000099EF10F014C009F015C00AF016C00BF0DA
:1021100017C00CF00C340C320B320A32093209C0F1
:1021200014F00AC015F00BC016F00CC017F0184AD6
:10213000192A19BEA4EF10F0195008E11828D8A0E8
:10214000A4EF10F0A6EF10F0B0EF10F0000E146E38
:10215000000E156E800E166E7F0E176EDEEF10F0FD
:1021600019BEBDEF10F0195006E11804D8B0BBEF4E
:1021700010F0BDEF10F0C9EF10F0000E146E000E5D
:10218000156E000E166E000E176E000E0D6EDEEF51
:1021900010F018C013F0FF0E1416FF0E15167F0E68
:1021A0001616000E171613A0D8EF10F0DAEF10F085
:1021B000DBEF10F0168ED8901330176E0D501712FB
:1021C00014C001F015C002F016C003F017C004F0EF
:1021D00012001850800B256E185018242C6E17AE64
:1021E000F4EF10F0F6EF10F0F7EF10F02C802C5019
:1021F000D8B4FDEF10F0FFEF10F014EF11F02C2821
:10220000D8A405EF11F007EF11F00FEF11F0000E59
:10221000156E000E166E000E176E000E186E178EDD
:10222000000E186E1CEF11F0000E156E000E166EEB
:10223000000E176E000E186E1C50800B251A1C50D5
:102240001C242D6E1BAE27EF11F029EF11F02AEFA1
:1022500011F02D802D50D8B430EF11F032EF11F085
:1022600047EF11F02D28D8A438EF11F03AEF11F014
:1022700042EF11F0000E196E000E1A6E000E1B6E6A
:10228000000E1C6E1B8E000E1C6E4FEF11F0000E28
:10229000196E000E1A6E000E1B6E000E1C6E195089
:1022A0001A101B101C10D8A458EF11F05AEF11F09F
:1022B00072EF11F0000E156E000E166E000E176E06
:1022C000000E186E800E17127F0E1812255018126D
:1022D00015C015F016C016F017C017F018C018F08A
:1022E000B5EF12F02C50D8A478EF11F07AEF11F07E
:1022F00084EF11F0000E156E000E166E000E176EB4
:10230000000E186EB5EF12F02D502CC01DF01E6A95
:102310001D5E000E1E5A7F0E1D24266E000E1E200E
:10232000276E15C021F016C022F017C023F018C088
:1023300024F0000E156E000E166E000E176E000EC5
:10234000186E000E286E000E296E000E2A6E000E0A
:102350002B6E000E2D6EE5EF11F02D50D8B4B3EFBB
:1023600011F0B5EF11F0CCEF11F0D89021362236F4
:1023700023362436D89015361636173618362BAE37
:10238000C4EF11F0C6EF11F0C7EF11F01580D8902F
:10239000283629362A362B361950215C1A502258F5
:1023A0001B5023581C502458D8A0D9EF11F0DBEF54
:1023B00011F0E4EF11F02B8C1950215E1A50225AC3
:1023C0001B50235A1C50245A2D2A190E2D64EBEF52
:1023D00011F0EDEF11F0ADEF11F0215022102310AC
:1023E0002410D8B4F6EF11F0F8EF11F010EF12F05E
:1023F000288010EF12F0D89015361636173618369A
:102400002BAE05EF12F007EF12F008EF12F0158077
:10241000D890283629362A362B362606D8A0270605
:1024200017AE15EF12F017EF12F0FBEF11F0000EE0
:102430002D6E2BAE1EEF12F020EF12F044EF12F0D3
:10244000FF0E28141D6EFF0E29141E6EFF0E2A1497
:102450001F6E7F0E2B14206E1D501E101F1020109B
:10246000D8B435EF12F037EF12F03BEF12F0010E57
:102470002D6E44EF12F015A040EF12F042EF12F073
:1024800044EF12F037EF12F02D50D8B44AEF12F0AB
:102490004CEF12F070EF12F0010E1526000E16220E
:1024A0001722182218A057EF12F059EF12F070EF10
:1024B00012F015C01DF016C01EF017C01FF018C096
:1024C00020F0203420321F321E321D321DC015F084
:1024D0001EC016F01FC017F020C018F0264A272A89
:1024E00027BE7BEF12F0275008E12628D8A07BEF0B
:1024F00012F07DEF12F088EF12F0000E276E2668C2
:10250000000E156E000E166E000E176E000E186E81
:1025100027BE95EF12F0275006E12604D8B093EFBE
:1025200012F095EF12F0A3EF12F0000E276E000EDE
:10253000266E000E156E000E166E000E176E000E43
:10254000186E000E256E26C02CF02CA0AAEF12F0FB
:10255000ACEF12F0AFEF12F0178EB0EF12F0179E43
:10256000D8902C30186E66EF11F01200B8C03EF013
:10257000B9C03FF0BAC040F0BBC041F02EC03EF041
:102580002FC03FF030C040F031C041F0810E326EBC
:10259000FF0E336E3EC034F03FC035F040C036F021
:1025A00041C037F0180EDAEF12F0D89037323632D9
:1025B00035323432E82ED5EF12F0345032243C6EEE
:1025C000000E33203D6E3DBEEFEF12F03D5009E1AD
:1025D000170E3C5CD8A0EFEF12F0F1EF12F0FBEF1A
:1025E00012F02EC02EF02FC02FF030C030F031C0CE
:1025F00031F0BEEF13F03DBE00EF13F002EF13F029
:1026000072EF13F03CC032F0FF0E336EFF0E346EEB
:102610007F0E356E000E366E326611EF13F019EF35
:1026200013F036343632353234323332322E0CEF48
:1026300013F033C038F034C039F035C03AF036C04A
:102640003BF038503E14326E39503F14336E3A50DE
:102650004014346E3B504114356E325033103410F8
:102660003510D8A436EF13F038EF13F03AEF13F02B
:10267000F1EF12F03EC032F03FC033F040C034F012
:1026800041C035F0200E4AEF13F0D8903532343285
:1026900033323232E82E45EF13F03250331034101B
:1026A0003510D8B456EF13F058EF13F060EF13F075
:1026B00038503E2639503F223A5040223B5041226A
:1026C000381C326E391C336E3A1C346E3B1C356E2E
:1026D00032503E1633503F16345040163550411696
:1026E000B6EF13F03EC032F03FC033F040C034F0DC
:1026F00041C035F0200E82EF13F0D89035323432DD
:1027000033323232E82E7DEF13F032503310341072
:102710003510D8A48EEF13F090EF13F09AEF13F06A
:10272000000E3E6E000E3F6E000E406E000E416EBB
:10273000B6EF13F0D8903E34326E3F34336E4034EF
:10274000346E4134356E3250331034103510D8B4F5
:10275000ACEF13F0AEEF13F0B6EF13F0000E3E6ED9
:10276000000E3F6E800E406EBF0E416E3EC02EF0DA
:102770003FC02FF040C030F041C031F012000F6E6A
:102780000F50D8B4C6EF13F0C8EF13F0EAEF13F010
:102790000ABECFEF13F0CDEF13F0EAEF13F007C04E
:1027A0000BF008C00CF009C00DF00AC00EF00B1EB3
:1027B0000C1E0D1E0E1E0B2A000E0C220D220E22C8
:1027C0000BC011F00CC012F00DC013F00EC014F0CD
:1027D000F2EF13F007C011F008C012F009C013F0B7
:1027E0000AC014F00750081009100A10D8A4FBEF13
:1027F00013F0FDEF13F007EF14F0000E076E000E5C
:10280000086E000E096E000E0A6E98EF14F0960E18
:10281000106E11EF14F0102AD890143213321232C5
:102820001132000E11140B6E000E12140C6E000EFD
:1028300013140D6EFE0E14140E6E0B500C100D10B2
:102840000E10D8A426EF14F028EF14F00BEF14F0BC
:1028500036EF14F0102A010E1126000E1222132258
:102860001422D8901432133212321132000E111485
:102870000B6E000E12140C6E000E13140D6EFF0E74
:1028800014140E6E0B500C100D100E10D8A44BEF3C
:1028900014F04DEF14F02AEF14F055EF14F0100679
:1028A000D890113612361336143613BE5AEF14F080
:1028B0005CEF14F064EF14F0020E106062EF14F09D
:1028C00064EF14F04FEF14F010B069EF14F06BEFF9
:1028D00014F06CEF14F0139ED890103210C00BF06F
:1028E0000C6A0D6A0E6A0BC00EF00D6A0C6A0B6A58
:1028F0000B5011120C5012120D5013120E501412D4
:102900000F50D8B486EF14F088EF14F090EF14F065
:102910000ABE8FEF14F08DEF14F090EF14F0148EC8
:1029200011C007F012C008F013C009F014C00AF07B
:102930001200000E166E000E156E000E0F6E000EC9
:102940000E6EA5EF14F0084A092A010E146E08C095
:10295000F6FF09C0F7FF0800F550200AD8B4B3EF1E
:1029600014F0B5EF14F0D2EF14F0F70E0A6EFF0E6C
:102970000B6E08C0F6FF09C0F7FF0800F5500C6E9B
:102980000D6A0A500C260B500D220D5009E1050E60
:102990000C5CD8A0CEEF14F0D0EF14F0D2EF14F00E
:1029A000000E146E14C010F0116A10501110D8A44B
:1029B000DCEF14F0DEEF14F0A3EF14F0E8EF14F006
:1029C000000E0F6E010E0E6E084A092A1DEF15F05B
:1029D00008C0F6FF09C0F7FF0800F5500A6E0B6A41
:1029E0000B50000AD8B4F7EF14F01DEF15F00A50A1
:1029F0002B0AD8B4E4EF14F0060AD8B4E0EF14F0D0
:102A00001DEF15F015C001F016C002F0000E046EA7
:102A10000A0E036E40EC1DF008C0F6FF09C0F7FF78
:102A20000800F550015E000E025A300E0124156EAA
:102A3000000E0220166EE4EF14F0D00E0A6EFF0EA8
:102A40000B6E08C0F6FF09C0F7FF0800F5500C6ECA
:102A50000D6A0A500C260B500D220D500AE10A0E89
:102A60000C5CD8A036EF15F039EF15F0010E3AEFF7
:102A700015F0000E126E136A12501310D8A443EF13
:102A800015F045EF15F002EF15F00E500F10D8A419
:102A90004CEF15F04EEF15F05CEF15F015C00AF095
:102AA00016C00BF00A1E0B1E0A4A0B2A0AC008F0B9
:102AB0000BC009F060EF15F015C008F016C009F062
:102AC0001200036E8198818A016A03AE01D0012A47
:102AD000010E011681500118FE0B0118816E03C012
:102AE00001F0060E026ED8900132022E73EF15F03F
:102AF000010E0116014681500118FD0B0118816E6F
:102B000003C001F0050E026ED8900132022E84EF50
:102B100015F0010E01160146014681500118FB0B0C
:102B20000118816E03C001F0013A0F0E0116010E6B
:102B3000011601460146014681500118F70B0118A4
:102B4000816E030EE82EFED700F08188030EE82E7A
:102B5000FED700F0819803C001F0D8900132D890E0
:102B60000132D8900132010E011681500118FE0B7E
:102B70000118816E03C001F0D8900132D890013263
:102B8000010E0116014681500118FD0B0118816EDE
:102B900003C001F0D8900132010E01160146014632
:102BA00081500118FB0B0118816E03C001F0010E6A
:102BB000011601460146014681500118F70B011824
:102BC000816E030EE82EFED700F08188030EE82EFA
:102BD000FED700F08198030EE82EFED700F00F0E0E
:102BE000016E480EE82EFED7012EFCD71200036EB0
:102BF0008198819A016A03AE01D0012A010E011663
:102C000081500118FE0B0118816E03C001F0060E01
:102C1000026ED8900132022E09EF16F0010E011655
:102C2000014681500118FD0B0118816E03C001F0AF
:102C3000050E026ED8900132022E1AEF16F0010E28
:102C400001160146014681500118FB0B0118816EE7
:102C500003C001F0013A0F0E0116010E01160146E4
:102C60000146014681500118F70B0118816E030ED1
:102C7000E82EFED700F08188030EE82EFED700F084
:102C8000819803C001F0D8900132D8900132D890D9
:102C90000132010E011681500118FE0B0118816EE0
:102CA00003C001F0D8900132D8900132010E011614
:102CB000014681500118FD0B0118816E03C001F01F
:102CC000D8900132010E01160146014681500118CB
:102CD000FB0B0118816E03C001F0010E01160146C5
:102CE0000146014681500118F70B0118816E030E51
:102CF000E82EFED700F08188030EE82EFED700F004
:102D000081980F0E016E480EE82EFED7012EFCD7DB
:102D1000120093909392939493969398939A8190A0
:102D20008192819481968198819A0F0E046E480E4B
:102D3000E82EFED7042EFCD70F0E046E480EE82EA8
:102D4000FED7042EFCD70F0E046E480EE82EFED7D9
:102D5000042EFCD70F0E046E480EE82EFED7042E6C
:102D6000FCD70F0E046E480EE82EFED7042EFCD7BB
:102D70000F0E046E480EE82EFED7042EFCD7010E6F
:102D8000056E81908192818481868198819A81905B
:102D90008192818481868188819A030EE82EFED7F4
:102DA00000F081908192818481868198819A0F0EB2
:102DB000046E480EE82EFED7042EFCD7052A030E1B
:102DC0000564E5EF16F0E7EF16F0C1EF16F081901D
:102DD0008192818481968198819A81908192818467
:102DE00081968188819A030EE82EFED700F08190AB
:102DF0008192818481968198819A0F0E046E480E8B
:102E0000E82EFED7042EFCD7280EF7EC15F0100E96
:102E1000F7EC15F0010EF7EC15F00F0EF7EC15F0CE
:102E200012009268000E936E000E946EC280C25023
:102E3000C30B0409C26EC050C70B1009C06EC08E10
:102E400089EC16F0010EF7EC15F00C0EF7EC15F00E
:102E5000020E0001B76F040EB66FBA0EE82EFED751
:102E6000B62FFCD7B72FFAD700F0C282C2B23BEF21
:102E700017F03DEF17F036EF17F0C4CFCCF000019C
:102E8000CD6BCC51B66FC350CC6FB6C0CDF0CCC0BB
:102E900001F0CDC002F0000E046E050E036E40EC92
:102EA0001DF001C007F002C008F0096A0A6A000EAE
:102EB000BFEC13F007C015F008C016F009C017F0FA
:102EC0000AC018F0000E196EC00E1A6E7F0E1B6E2F
:102ED000440E1C6EE9EC10F015C0C0F016C0C1F035
:102EE00017C0C2F018C0C3F0CE0E0001A46F000ED0
:102EF000A56F010EA66F080EA76FC0C0A8F0C1C0D5
:102F0000A9F0C2C0AAF0C3C0ABF03AEC1CF0010EAD
:102F1000046ECE0E056E000E066E010E5CEC1BF00C
:102F2000CCC082FF35EF17F000EF00F0033404341B
:102F30000A6E0A50D8A49FEF17F0A1EF17F0ABEF7D
:102F400017F0000E016E000E026E000E036E000EF2
:102F5000046E18EF18F001C005F002C006F003C0BF
:102F600007F004C008F0200EBBEF17F0D89008322D
:102F7000073206320532E82EB6EF17F00550096E1B
:102F8000038EFF0E0116FF0E0216FF0E0316000E33
:102F90000416960E0A5E0ABED2EF17F0D0EF17F0B5
:102FA000E8EF17F00A50800A970FD8B0DAEF17F061
:102FB000DCEF17F0DEEF17F0A1EF17F0D890043236
:102FC0000332023201320A3EDEEF17F000EF18F052
:102FD0001F0E0A64EEEF17F0F0EF17F0F8EF17F09E
:102FE000A1EF17F0D89001360236033604360A06F0
:102FF0000A50D8A4FEEF17F000EF18F0F2EF17F028
:103000000950D8B406EF18F008EF18F010EF18F0D8
:10301000041E031E021E016C000E02220322042263
:1030200001C001F002C002F003C003F004C004F0CC
:103030001200000E1A14226E000E1B14236E800E56
:103040001C14246E7F0E1D14256E22502310241094
:103050002510D8A42EEF18F030EF18F038EF18F044
:10306000000E1A6E000E1B6E000E1C6E000E1D6E02
:10307000000E1E14226E000E1F14236E800E2014EC
:10308000246E7F0E2114256E22502310241025104B
:10309000D8A44DEF18F04FEF18F057EF18F0000ECE
:1030A0001E6E000E1F6E000E206E000E216E1DAEF5
:1030B0005CEF18F05EEF18F067EF18F01A6C1B1E4B
:1030C000D8B01B2A1C1ED8B01C2A800E1D5621AE5B
:1030D0006CEF18F06EEF18F077EF18F01E6C1F1EF3
:1030E000D8B01F2A201ED8B0202A800E2156000EEC
:1030F0001A1A000E1B1A000E1C1A800E1D1A000E42
:103100001E1A000E1F1A000E201A800E211A1E50C1
:103110001A5C1F501B5820501C5821501D58D8B005
:1031200094EF18F096EF18F099EF18F0D8909AEF06
:1031300018F0D8801200BCC00BF0BDC00CF0BEC0AF
:103140000DF0BFC00EF001C00BF002C00CF003C0C8
:103150000DF004C00EF00BC005F00CC006F00DC061
:1031600007F00EC008F0180EBBEF18F0D890083228
:10317000073206320532E82EB6EF18F00550096E18
:103180000A6A09500A10D8A4C8EF18F0CAEF18F05C
:10319000EAEF18F0D8900B34056E0C34066E0D343F
:1031A000076E0E34086E0550061007100810D8A4DC
:1031B000DCEF18F0DEEF18F0E4EF18F0000E026E0E
:1031C000020E016E19EF19F0000E026E030E016E71
:1031D00019EF19F009280A10D8A4F1EF18F0F3EF4D
:1031E00018F015EF19F00BC005F00CC006F00DC07B
:1031F00007F00EC008F0090ED890053606360736DF
:103200000836E82EFCEF18F00550061007100810DD
:10321000D8B40DEF19F010EF19F0010E11EF19F0FD
:10322000000E016E026A19EF19F0000E026E040E14
:10323000016E120001C008F002C009F003C00AF0DC
:1032400004C00BF00506D8A00606052806E10628EE
:10325000D8A42DEF19F02FEF19F03CEF19F0000E64
:10326000026E000E016E84EF19F0084A092A0A4A1C
:103270000B2A0506D8A0060608C0D9FF09C0DAFF48
:10328000DF50D8B446EF19F048EF19F073EF19F09A
:103290000AC0F6FF0BC0F7FF0800F5500009D8B4CC
:1032A00054EF19F056EF19F073EF19F005500610AE
:1032B000D8B45DEF19F05FEF19F073EF19F008C0A3
:1032C000D9FF09C0DAFFDF50076E0AC0F6FF0BC056
:1032D000F7FF0800F5500718D8B471EF19F073EF35
:1032E00019F035EF19F008C0D9FF09C0DAFFDF5037
:1032F000076E0AC0F6FF0BC0F7FF0800F550075C29
:10330000016E026AD8A00206120003500410D8B45D
:103310008CEF19F08EEF19F097EF19F003500410AD
:10332000D8A495EF19F097EF19F09CEF19F0015020
:1033300064EC1DF0E9EF19F020EE04F00350D926FB
:103340000450DA22DE50DE10D8B4A9EF19F0ABEF4A
:1033500019F0C6EF19F020EE04F00350D9260450FE
:10336000DA2210EE02F00350E1260450E222DE5091
:10337000E65CE650800A096EDE50800A0958D8B033
:10338000C4EF19F0C6EF19F0E9EF19F020EE02F0E2
:103390000350D9260450DA22DECF05F0DDCF06F047
:1033A00003C0D9FF04C0DAFFDECF07F0DDCF08F09D
:1033B00005500724D96E06500820DA6E01C0DFFFE1
:1033C00020EE02F00350D9260450DA22DE2A000E45
:1033D000DD2212000001CAA1F0EF19F0F2EF19F09E
:1033E000FCEF19F013C00AF014C00BF011C00CF080
:1033F00012C00DF0AFEC1CF016BE01EF1AF003EF97
:103400001AF009EF1AF015C01AF016C01BF00DEFF4
:103410001AF0000E1B6E000E1A6E000E196E000ED2
:10342000186E1FEF1AF0000E026E200E016E11C012
:1034300003F012C004F085EC19F0184A192A1A504A
:10344000185C1950800A176E1B50800A1758D8A0B4
:103450002CEF1AF02EEF1AF013EF1AF00001CAB198
:1034600034EF1AF036EF1AF040EF1AF013C00AF0FA
:1034700014C00BF011C00CF012C00DF0AFEC1CF03A
:1034800013C001F014C002F025EC1DF01A50012405
:10349000116E1B500220126E1200000E066E04BE4A
:1034A00056EF1AF054EF1AF05CEF1AF0036C041E9A
:1034B000D8B0042A010E066E02BE63EF1AF061EF67
:1034C0001AF069EF1AF0016C021ED8B0022A010E40
:1034D000061A000E086E000E076E03500410D8B4D2
:1034E00074EF1AF076EF1AF09EEF1AF0010E056EE7
:1034F0007EEF1AF0D89003360436052A04AE83EF27
:103500001AF085EF1AF07AEF1AF0D89007360836DD
:103510000350015C04500258D8A091EF1AF093EFC9
:103520001AF098EF1AF00350015E0450025A078017
:10353000D89004320332052E85EF1AF00650D8B425
:10354000A4EF1AF0A6EF1AF0AAEF1AF0076C081E03
:10355000D8B0082A07C001F008C002F01200000E1F
:10356000066E02BEB8EF1AF0B6EF1AF0BEEF1AF010
:10357000016C021ED8B0022A010E066E04BEC5EF11
:103580001AF0C3EF1AF0C9EF1AF0036C041ED8B09A
:10359000042A03500410D8B4D0EF1AF0D2EF1AF076
:1035A000F6EF1AF0010E056EDAEF1AF0D890033636
:1035B0000436052A04AEDFEF1AF0E1EF1AF0D6EF79
:1035C0001AF00350015C04500258D8A0EAEF1AF038
:1035D000ECEF1AF0F0EF1AF00350015E0450025ABB
:1035E000D89004320332052EE1EF1AF00650D8B419
:1035F000FCEF1AF0FEEF1AF002EF1BF0016C021E56
:10360000D8B0022A01C001F002C002F01200000E80
:103610000114096E000E02140A6E800E03140B6E64
:103620007F0E04140C6E09500A100B100C10D8A455
:103630001CEF1BF01EEF1BF026EF1BF0000E016EBF
:10364000000E026E000E036E000E046E000E0514D6
:10365000096E000E06140A6E800E07140B6E7F0EA4
:1036600008140C6E09500A100B100C10D8A43BEF74
:103670001BF03DEF1BF045EF1BF0000E056E000E3A
:10368000066E000E076E000E086E055001180FE161
:10369000065002180CE10750031809E108500418FD
:1036A000D8B455EF1BF057EF1BF05AEF1BF0D89032
:1036B0005BEF1BF0D8801200096E73EF1BF0045013
:1036C000800F0A6E90EF1BF00450C00F0A6E90EF4F
:1036D0001BF00450940F0A6E90EF1BF00450D40FAF
:1036E0000A6E90EF1BF00950076E086A0850000A36
:1036F000D8B47DEF1BF090EF1BF00750010AD8B44F
:103700005FEF1BF0030AD8B464EF1BF0010AD8B4D2
:1037100069EF1BF0070AD8B46EEF1BF090EF1BF0B7
:103720000A50F7EC15F09EEF1BF005C0D9FF06C05C
:10373000DAFFDF5061EC15F0054A062A05C0D9FF13
:1037400006C0DAFFDF50D8A4A8EF1BF0AAEF1BF0E9
:1037500095EF1BF012005AC05EF05BC05FF0000EE8
:103760000001C56F000EC46FC9EF1BF058C04EF0CA
:1037700059C04FF05E0E506E000E516E5CC052F09C
:103780005DC053F09FEC0CF04E500001C4274F5029
:10379000C5235EC0F6FF5FC0F7FF0800F5500009C3
:1037A000D8A4D5EF1BF0D7EF1BF0B6EF1BF0C4C0C9
:1037B00058F0C5C059F01200BF0E096EFF0E0A6E18
:1037C00007C00BF008C00CF009500B260A500C2261
:1037D0000C500AE11A0E0B5CD8A0F1EF1BF0F4EFCD
:1037E0001BF0010EF5EF1BF0000E0D6E0E6A0D5072
:1037F0000E10D8B4FEEF1BF000EF1CF007EF1CF02A
:10380000200E0710076E0850086E0BEF1CF007C063
:1038100007F008C008F0120003C007F004C008F069
:1038200001C009F002C00AF00750056E0850066E8C
:10383000074A082A05C0F6FF06C0F7FFF86A09C064
:10384000D9FF0AC0DAFF094A0A2A070EF76403D033
:103850000800F55005D0F6CFE1FFF7CFE2FFE750C3
:10386000DF6EDF50D8A437EF1CF039EF1CF014EFF7
:103870001CF01200A80E0001AE6F000EAF6FA4C0C6
:10388000B0F0A5C0B1F0000EB36F000EB26F000E25
:10389000B56F000EB46FB00E586E000E596EA6C014
:1038A0005AF0A7C05BF0AE0E5C6E000E5D6EABEC26
:1038B0001BF00001B251A425D96EB351A521DA6ED7
:1038C000000EDF6E1200010E076E200E01180210AE
:1038D000D8B46DEF1CF06FEF1CF088EF1CF0F70E02
:1038E000036EFF0E046E01C005F002C006F0035027
:1038F000052604500622065009E1050E055CD8A0F5
:1039000084EF1CF086EF1CF088EF1CF0000E076EB1
:1039100007C001F0026A1200000E1E1A000E1F1AE4
:10392000000E201A800E211A1AC001F01BC002F0EE
:103930001CC003F01DC004F01EC005F01FC006F03F
:1039400020C007F021C008F03FEC0AF001C01AF0D7
:1039500002C01BF003C01CF004C01DF01200000EDA
:10396000106E000E0F6EC0EF1CF00EC001F0026A68
:103970000CC003F00DC004F085EC19F00F4A102ABA
:103980000F500A24D96E10500B20DA6EDF500E6EE5
:103990000E50D8A4CEEF1CF0D0EF1CF0B5EF1CF009
:1039A0001200BF0E036EFF0E046E01C005F002C0D0
:1039B00006F0035005260450062206500AE11A0EAE
:1039C000055CD8A0E6EF1CF0E9EF1CF0010EEAEF71
:1039D0001CF0000E016E026A12000150021003106A
:1039E0000410D8B4F6EF1CF0F8EF1CF000EF1DF057
:1039F000000E011A000E021A000E031A800E041A9D
:103A000001C001F002C002F003C003F004C004F0E2
:103A10001200D00E036EFF0E046E01C005F002C04E
:103A200006F0035005260450062206500AE10A0E4D
:103A3000055CD8A01EEF1DF021EF1DF0010E22EF56
:103A40001DF0000E016E026A120001C003F002C0F8
:103A500004F02DEF1DF0014A022A01C0D9FF02C077
:103A6000DAFFDF50D8A437EF1DF039EF1DF02BEF50
:103A70001DF00350015C016E04500258026E1200EA
:103A800001500302F3CF05F0F4CF06F00150040219
:103A9000F350062602500302F350062605C001F03B
:103AA00006C002F0120001EE00F0500EEE6AE806C9
:103AB000FDE100EEB8F02A0EEE6AE806FDE1000E28
:0A3AC000F86E000111EF17F012007C
:020000040020DA
:08000000FFFFFFFFFFFFFFFF00
:020000040030CA
:0E0000000088181EFF0181FF0FC00FE00F40A7
:00000001FF
