:020000040000FA
:0400000007EF00F016
:100008000B8209ED00F045EF00F00600C280C250F7
:10001800C30B0409C26EC050C70B1009C06EC08E56
:10002800C282C2B21AEF00F01CEF00F015EF00F028
:10003800020E066EBC0E056E05C0D6FF0650D76EC2
:1000480014EF00F00B9211009368000E926E000EF0
:10005800896E2B0ED66ECF0ED76E37EC00F033EFCD
:1000680000F007EF00F0F29ED59AD596D550F80B20
:100078000209D56ED59CF294F28AF28CF28ED58E56
:10008800120000EE01F00A0EEE6AE806FDE10B90A0
:080098000B92000128EF00F0BB
:020000040020DA
:08000000FFFFFFFFFFFFFFFF00
:020000040030CA
:0E0000000088181EFF0181FF0FC00FE00F40A7
:00000001FF
