:020000040000FA
:0400000007EF00F016
:10000800158294ED01F0A3EF01F0000E106E0EBE04
:1000180012EF00F010EF00F018EF00F00D6C0E1E5C
:10002800D8B00E2A010E106E0CBE1FEF00F01DEFA7
:1000380000F025EF00F00B6C0C1ED8B00C2A010E56
:10004800101A000E126E000E116E0D500E10D8B45C
:1000580030EF00F032EF00F05AEF00F0010E0F6EB3
:100068003AEF00F0D8900D360E360F2A0EAE3FEF5D
:1000780000F041EF00F036EF00F0D890113612365C
:100088000D500B5C0E500C58D8A04DEF00F04FEF00
:1000980000F054EF00F00D500B5E0E500C5A11801A
:1000A800D8900E320D320F2E41EF00F01050D8B418
:1000B80060EF00F062EF00F066EF00F0116C121EC6
:1000C800D8B0122A11C00BF012C00CF01200000EAA
:1000D800066E04BE74EF00F072EF00F07AEF00F0E5
:1000E800036C041ED8B0042A010E066E02BE81EF0E
:1000F80000F07FEF00F087EF00F0016C021ED8B02F
:10010800022A010E061A000E086E000E076E035032
:100118000410D8B492EF00F094EF00F0BCEF00F0B8
:10012800010E056E9CEF00F0D89003360436052AC0
:1001380004AEA1EF00F0A3EF00F098EF00F0D89024
:10014800073608360350015C04500258D8A0AFEFB8
:1001580000F0B1EF00F0B6EF00F00350015E04507C
:10016800025A0780D89004320332052EA3EF00F01C
:100178000650D8B4C2EF00F0C4EF00F0C8EF00F0AA
:10018800076C081ED8B0082A07C001F008C002F0A2
:100198001200A00EF26EC70ED56E13C00BF014C07D
:1001A8000CF0000E0E6E090E0D6E3BEC01F00BC04C
:1001B80013F00CC014F06C0ED66E640ED76E1200DD
:1001C800A00EF26EC70ED56E13C001F014C002F077
:1001D800000E046E090E036E61EC01F001C013F00D
:1001E80002C014F06C0ED66E640ED76E1200A00E0C
:1001F800F26EC40ED56E13C00BF014C00CF0000ED6
:100208000E6E040E0D6E09EC00F00BC013F00CC05E
:1002180014F01350D208D66E1200A00EF26EC40E5F
:10022800D56E13C001F014C002F0000E046E040E67
:10023800036E6BEC00F001C013F002C014F0135011
:10024800D208D66E1200700ED36E92809494000E6F
:10025800146E800E136E74EC01F04EEC01F00BC0BE
:1002680013F00CC014F031EF01F007EF00F00B5061
:100278000D02F3CF0FF0F4CF10F00B500E02F35035
:1002880010260C500D02F35010260FC00BF010C0B2
:100298000CF012000E0EC16E000EC26E250EC06E5E
:1002A800C280C282C2B25BEF01F05DEF01F056EF8F
:1002B80001F0C4CF0BF00C6A120001500302F3CF17
:1002C80005F0F4CF06F001500402F3500626025060
:1002D8000302F350062605C001F006C002F0120022
:1002E80082A479EF01F07BEF01F080EF01F08294B6
:1002F800CDEC00F083EF01F08284FBEC00F01200FB
:1003080082A489EF01F08BEF01F090EF01F0829465
:10031800E4EC00F093EF01F0828411EC01F012009C
:100328000600F3CF09F0F4CF0AF0F29EF29484ECC1
:1003380001F00AC0F4FF09C0F3FF159211001590EF
:080348001592000127EF01F0FE
:020000040020DA
:08000000FFFFFFFFFFFFFFFF00
:020000040030CA
:0E0000000088181EFF0181FF0FC00FE00F40A7
:00000001FF
