:020000040000FA
:0400000007EF00F016
:100008005182B4ED06F0E4EF06F00450800B0D6E5B
:1000180004500424136E03AE14EF00F016EF00F042
:1000280017EF00F013801350D8B41DEF00F01FEF46
:1000380000F032EF00F01328D8A425EF00F027EFE6
:1000480000F02FEF00F0000E016E000E026E000EA1
:10005800036E000E046E038E3AEF00F0000E016E80
:10006800000E026E000E036E000E046E0850800B28
:100078000D1A08500824126E07AE45EF00F047EF3E
:1000880000F048EF00F012801250D8B44EEF00F0A4
:1000980050EF00F063EF00F01228D8A456EF00F0FC
:1000A80058EF00F060EF00F0000E056E000E066ECF
:1000B800000E076E000E086E078E6BEF00F0000E44
:1000C800056E000E066E000E076E000E086E1250CA
:1000D800D8B471EF00F073EF00F07BEF00F013502D
:1000E800D8A479EF00F07BEF00F085EF00F0000E68
:1000F800016E000E026E000E036E000E046E1DEF00
:1001080002F007500102F3CF18F0F4CF19F018509D
:100118000E6E0F6A106A116A1950146E156A166A03
:10012800176A06500202F3CF18F0F4CF19F01850EE
:100138000E26000E0F221022112219501426000E2E
:1001480015221622172205500302F3CF18F0F4CF18
:1001580019F018500E26000E0F22102211221950E5
:100168001426000E15221622172210C011F00FC0F7
:1001780010F00EC00FF00E6A05500202F3CF18F00F
:10018800F4CF19F018500E2619500F22000E102225
:10019800000E112206500102F3CF18F0F4CF19F027
:1001A80018500E2619500F22000E1022000E112290
:1001B80010C011F00FC010F00EC00FF00E6A0550FD
:1001C8000102F3CF18F0F4CF19F018500E26195089
:1001D8000F22000E1022000E112207500202F3CF48
:1001E80018F0F4CF19F01850142619501522000EE3
:1001F8001622000E172206500302F3CF18F0F4CF90
:1002080019F01850142619501522000E1622000E47
:10021800172207500302F3CF18F0F4CF19F0185043
:10022800096E19500A6E0B6A0C6A0BC00CF00AC0F2
:100238000BF009C00AF0096A095014260A50152261
:100248000B5016220C5017220EC009F00FC00AF0EE
:1002580010C00BF011C00CF0190E38EF01F0D89057
:100268000C320B320A320932E82E33EF01F0095012
:1002780014260A5015220B5016220C50172210C0B3
:1002880011F00FC010F00EC00FF00E6A125013C01C
:1002980009F00A6A0926000E0A22820E0924186E3D
:1002A800FF0E0A20196E6EEF01F0D890143615363D
:1002B8001636173611AE63EF01F065EF01F066EF01
:1002C80001F01480D8900E360F3610361136180605
:1002D800D8A0190616AE73EF01F075EF01F059EFCB
:1002E80001F0000E126E11AE7CEF01F07EEF01F00E
:1002F800A2EF01F0FF0E0E14096EFF0E0F140A6E26
:10030800FF0E10140B6E7F0E11140C6E09500A109C
:100318000B100C10D8B493EF01F095EF01F099EFA2
:1003280001F0010E126EA2EF01F014A09EEF01F091
:10033800A0EF01F0A2EF01F095EF01F01250D8B450
:10034800A8EF01F0AAEF01F0CEEF01F0010E14269C
:10035800000E15221622172217A0B5EF01F0B7EFED
:1003680001F0CEEF01F014C009F015C00AF016C074
:100378000BF017C00CF00C340C320B320A32093275
:1003880009C014F00AC015F00BC016F00CC017F025
:10039800184A192A19BED9EF01F0195008E118288E
:1003A800D8A0D9EF01F0DBEF01F0E5EF01F0000E86
:1003B800146E000E156E800E166E7F0E176E13EFFC
:1003C80002F019BEF2EF01F0195006E11804D8B096
:1003D800F0EF01F0F2EF01F0FEEF01F0000E146E05
:1003E800000E156E000E166E000E176E000E0D6EC6
:1003F80013EF02F018C013F0FF0E1416FF0E1516B7
:100408007F0E1616000E171613A00DEF02F00FEF51
:1004180002F010EF02F0168ED8901330176E0D50C0
:10042800171214C001F015C002F016C003F017C06F
:1004380004F012001D50800B2A6E1D501D24316ED1
:100448001CAE29EF02F02BEF02F02CEF02F0318006
:100458003150D8B432EF02F034EF02F049EF02F035
:100468003128D8A43AEF02F03CEF02F044EF02F052
:10047800000E1A6E000E1B6E000E1C6E000E1D6E16
:100488001C8E000E1D6E51EF02F0000E1A6E000E4B
:100498001B6E000E1C6E000E1D6E2150800B2A1A5A
:1004A80021502124326E20AE5CEF02F05EEF02F0A4
:1004B8005FEF02F032803250D8B465EF02F067EF98
:1004C80002F07CEF02F03228D8A46DEF02F06FEF53
:1004D80002F077EF02F0000E1E6E000E1F6E000E87
:1004E800206E000E216E208E000E216E84EF02F029
:1004F800000E1E6E000E1F6E000E206E000E216E86
:100508001E501F1020102110D8A48DEF02F08FEF7D
:1005180002F0A7EF02F0000E1A6E000E1B6E000E1E
:100528001C6E000E1D6E800E1C127F0E1D122A50AE
:100538001D121AC01AF01BC01BF01CC01CF01DC0F5
:100548001DF0EAEF03F03150D8A4ADEF02F0AFEFA1
:1005580002F0B9EF02F0000E1A6E000E1B6E000ECC
:100568001C6E000E1D6EEAEF03F0325031C022F00F
:10057800236A225E000E235A7F0E22242B6E000E61
:1005880023202C6E1AC026F01BC027F01CC028F0B0
:100598001DC029F0000E1A6E000E1B6E000E1C6E98
:1005A800000E1D6E000E2D6E000E2E6E000E2F6EAC
:1005B800000E306E000E326E1AEF03F03250D8B4CF
:1005C800E8EF02F0EAEF02F001EF03F0D8902636E8
:1005D800273628362936D8901A361B361C361D364B
:1005E80030AEF9EF02F0FBEF02F0FCEF02F01A80F8
:1005F800D8902D362E362F3630361E50265C1F509A
:1006080027582050285821502958D8A00EEF03F019
:1006180010EF03F019EF03F0308C1E50265E1F50C8
:10062800275A2050285A2150295A322A190E326442
:1006380020EF03F022EF03F0E2EF02F0265027103C
:1006480028102910D8B42BEF03F02DEF03F045EF55
:1006580003F02D8045EF03F0D8901A361B361C3670
:100668001D3630AE3AEF03F03CEF03F03DEF03F0F8
:100678001A80D8902D362E362F3630362B06D8A035
:100688002C061CAE4AEF03F04CEF03F030EF03F0FA
:10069800000E326E30AE53EF03F055EF03F079EFF2
:1006A80003F0FF0E2D14226EFF0E2E14236EFF0E84
:1006B8002F14246E7F0E3014256E22502310241020
:1006C8002510D8B46AEF03F06CEF03F070EF03F075
:1006D800010E326E79EF03F01AA075EF03F077EF91
:1006E80003F079EF03F06CEF03F03250D8B47FEFEA
:1006F80003F081EF03F0A5EF03F0010E1A26000EB8
:100708001B221C221D221DA08CEF03F08EEF03F08C
:10071800A5EF03F01AC022F01BC023F01CC024F080
:100728001DC025F02534253224322332223222C03E
:100738001AF023C01BF024C01CF025C01DF02B4A62
:100748002C2A2CBEB0EF03F02C5008E12B28D8A09F
:10075800B0EF03F0B2EF03F0BDEF03F0000E2C6E24
:100768002B68000E1A6E000E1B6E000E1C6E000E1B
:100778001D6E2CBECAEF03F02C5006E12B04D8B036
:10078800C8EF03F0CAEF03F0D8EF03F0000E2C6EA9
:10079800000E2B6E000E1A6E000E1B6E000E1C6EE5
:1007A800000E1D6E000E2A6E2BC031F031A0DFEF57
:1007B80003F0E1EF03F0E4EF03F01C8EE5EF03F044
:1007C8001C9ED89031301D6E9BEF02F01200236EF4
:1007D8002350D8B4F2EF03F0F4EF03F016EF04F06F
:1007E8001EBEFBEF03F0F9EF03F016EF04F01BC099
:1007F8001FF01CC020F01DC021F01EC022F01F1EDB
:10080800201E211E221E1F2A000E20222122222203
:100818001FC025F020C026F021C027F022C028F0F4
:100828001EEF04F01BC025F01CC026F01DC027F0E9
:100838001EC028F01B501C101D101E10D8A427EF36
:1008480004F029EF04F033EF04F0000E1B6E000EE5
:100858001C6E000E1D6E000E1E6EC4EF04F0960E88
:10086800246E3DEF04F0242AD8902832273226320D
:100878002532000E25141F6E000E2614206E000E61
:100888002714216EFE0E2814226E1F5020102110EE
:100898002210D8A452EF04F054EF04F037EF04F01C
:1008A80062EF04F0242A010E2526000E26222722B4
:1008B8002822D8902832273226322532000E2514D5
:1008C8001F6E000E2614206E000E2714216EFF0ED8
:1008D8002814226E1F50201021102210D8A477EF60
:1008E80004F079EF04F056EF04F081EF04F02406E9
:1008F800D890253626362736283627BE86EF04F0C8
:1009080088EF04F090EF04F0020E24608EEF04F0FC
:1009180090EF04F07BEF04F024B095EF04F097EF2C
:1009280004F098EF04F0279ED890243224C01FF0DA
:10093800206A216A226A1FC022F0216A206A1F6A7F
:100948001F502512205026122150271222502812FB
:100958002350D8B4B2EF04F0B4EF04F0BCEF04F0C5
:100968001EBEBBEF04F0B9EF04F0BCEF04F0288E14
:1009780025C01BF026C01CF027C01DF028C01EF0A3
:100988001200C280C250C30B0409C26EC050C70B0C
:100998001009C06EC08EF00E956E000E936E9268B0
:1009A800000E8C6E2B0ED66ECF0ED76ED6EC06F0E0
:1009B800C282C2B2E2EF04F0E4EF04F0DDEF04F02B
:1009C800C4504D6E4E6A4F6A506AC3504DC03EF0D7
:1009D8004EC03FF04FC040F03D6A3D104D6E3E5056
:1009E8004E6E3F504F6E4050506EFF0E116E030E0C
:1009F800126E000E136E000E146E4DC001F04EC044
:100A080002F04FC003F050C004F0640E056E000EF3
:100A1800066E000E076E000E086E7FEC06F001C031
:100A28000DF002C00EF003C00FF004C010F076EC19
:100A380005F00DC01BF00EC01CF00FC01DF010C05B
:100A48001EF0010EEBEC03F01BC049F01CC04AF08D
:100A58001DC04BF01EC04CF0000E1E6E000E1F6E27
:100A6800C80E206E420E216E000E056E400E066EF8
:100A78001C0E076E440E086E49C001F04AC002F011
:100A88004BC003F04CC004F009EC00F001C01AF0B0
:100A980002C01BF003C01CF004C01DF01EEC02F0E5
:100AA8001AC033F01BC034F01CC035F01DC036F03E
:100AB800FCEC05F033C041F034C042F035C043F0DF
:100AC80036C044F041500D08456ED40E4254466E6F
:100AD800000E4354476E000E4454486EDCEF04F099
:100AE80007EF00F0000E166E14BE7FEF05F07DEFE5
:100AF80005F089EF05F0141E131E121E116C000E6E
:100B0800122213221422010E166E10BE90EF05F069
:100B18008EEF05F09AEF05F0101E0F1E0E1E0D6CDD
:100B2800000E0E220F221022010E161A000E176E4A
:100B3800000E186E000E196E000E1A6E115012106B
:100B480013101410D8B4ABEF05F0ADEF05F0E3EFD8
:100B580005F0010E156EB7EF05F0D8901136123674
:100B680013361436152A14AEBCEF05F0BEEF05F0A7
:100B7800B1EF05F0D8901736183619361A361150D5
:100B88000D5C12500E5813500F5814501058D8A01E
:100B9800D0EF05F0D2EF05F0DBEF05F011500D5E58
:100BA80012500E5A13500F5A1450105A1780D890DA
:100BB8001432133212321132152EBEEF05F01650D0
:100BC800D8B4E9EF05F0EBEF05F0F3EF05F01A1EE6
:100BD800191E181E176C000E182219221A2217C087
:100BE8000DF018C00EF019C00FF01AC010F0120066
:100BF800353436343C6E3C50D8A405EF06F007EF88
:100C080006F011EF06F0000E336E000E346E000E83
:100C1800356E000E366E7EEF06F033C037F034C006
:100C280038F035C039F036C03AF0200E21EF06F022
:100C3800D8903A32393238323732E82E1CEF06F083
:100C480037503B6E358EFF0E3316FF0E3416FF0EEF
:100C58003516000E3616960E3C5E3CBE38EF06F092
:100C680036EF06F04EEF06F03C50800A970FD8B0EA
:100C780040EF06F042EF06F044EF06F007EF06F00B
:100C8800D89036323532343233323C3E44EF06F0B7
:100C980066EF06F01F0E3C6454EF06F056EF06F0C0
:100CA8005EEF06F007EF06F0D89033363436353667
:100CB80036363C063C50D8A464EF06F066EF06F0E2
:100CC80058EF06F03B50D8B46CEF06F06EEF06F024
:100CD80076EF06F0361E351E341E336C000E3422B5
:100CE8003522362233C033F034C034F035C035F005
:100CF80036C036F01200000E096E000E0A6E000EA5
:100D08000B6E000E0C6E01A08CEF06F08EEF06F055
:100D180096EF06F00550092606500A2207500B22C6
:100D280008500C22D8900536063607360836D89073
:100D3800043203320232013201500210031004104F
:100D4800D8A4A9EF06F0ABEF06F087EF06F009C0CC
:100D580001F00AC002F00BC003F00CC004F012004E
:100D68000600F2A4BAEF06F0BCEF06F0D4EF06F0E6
:100D78008C824550461047104810D8B4C6EF06F08C
:100D8800C8EF06F0D4EF06F0A60EE82EFED700D086
:100D98008C9245C0D6FF46C0D7FFF29445C081FF6C
:100DA80051921100F29ED59AD596D550F80B0209AA
:100DB800D56ED59CF294F28AF28CF28ED58E120002
:100DC80000EE41F0100EEE6AE806FDE151905192F6
:060DD8000001C5EF04F06C
:020000040020DA
:08000000FFFFFFFFFFFFFFFF00
:020000040030CA
:0E0000000088181EFF0181FF0FC00FE00F40A7
:00000001FF
