:020000040000FA
:0400000007EF00F016
:1000080015829CED01F0ABEF01F0000E106E0EBEF4
:1000180012EF00F010EF00F018EF00F00D6C0E1E5C
:10002800D8B00E2A010E106E0CBE1FEF00F01DEFA7
:1000380000F025EF00F00B6C0C1ED8B00C2A010E56
:10004800101A000E126E000E116E0D500E10D8B45C
:1000580030EF00F032EF00F05AEF00F0010E0F6EB3
:100068003AEF00F0D8900D360E360F2A0EAE3FEF5D
:1000780000F041EF00F036EF00F0D890113612365C
:100088000D500B5C0E500C58D8A04DEF00F04FEF00
:1000980000F054EF00F00D500B5E0E500C5A11801A
:1000A800D8900E320D320F2E41EF00F01050D8B418
:1000B80060EF00F062EF00F066EF00F0116C121EC6
:1000C800D8B0122A11C00BF012C00CF01200000EAA
:1000D800066E04BE74EF00F072EF00F07AEF00F0E5
:1000E800036C041ED8B0042A010E066E02BE81EF0E
:1000F80000F07FEF00F087EF00F0016C021ED8B02F
:10010800022A010E061A000E086E000E076E035032
:100118000410D8B492EF00F094EF00F0BCEF00F0B8
:10012800010E056E9CEF00F0D89003360436052AC0
:1001380004AEA1EF00F0A3EF00F098EF00F0D89024
:10014800073608360350015C04500258D8A0AFEFB8
:1001580000F0B1EF00F0B6EF00F00350015E04507C
:10016800025A0780D89004320332052EA3EF00F01C
:100178000650D8B4C2EF00F0C4EF00F0C8EF00F0AA
:10018800076C081ED8B0082A07C001F008C002F0A2
:100198001200A00EF26E800ED56E13C00BF014C0C4
:1001A8000CF0000E0E6E090E0D6E43EC01F00BC044
:1001B80013F00CC014F0740E1324D66E460E1420DF
:1001C800D76E060ED66E1200A00EF26E800ED56E99
:1001D80013C001F014C002F0000E046E090E036E85
:1001E80069EC01F001C013F002C014F0740E13247E
:1001F800D66E460E1420D76E060ED66E1200A00ECE
:10020800F26EC50ED56E13C00BF014C00CF0000EC4
:100218000E6E030E0D6E09EC00F00BC013F00CC04F
:1002280014F01350B108D66E1200A00EF26EC50E6F
:10023800D56E13C001F014C002F0000E046E030E58
:10024800036E6BEC00F001C013F002C014F0135001
:10025800B108D66E1200700ED36E92809494000E80
:10026800146E800E136E7CEC01F056EC01F00BC09E
:1002780013F00CC014F039EF01F007EF00F00B5049
:100288000D02F3CF0FF0F4CF10F00B500E02F35025
:1002980010260C500D02F35010260FC00BF010C0A2
:1002A8000CF012000E0EC16E000EC26E250EC06E4E
:1002B800C280C282C2B263EF01F065EF01F05EEF67
:1002C80001F0C4CF0BF00C6A120001500302F3CF07
:1002D80005F0F4CF06F001500402F3500626025050
:1002E8000302F350062605C001F006C002F0120012
:1002F80082A481EF01F083EF01F088EF01F082948E
:10030800CDEC00F08BEF01F0828403EC01F01200D9
:1003180082A491EF01F093EF01F098EF01F082943D
:10032800E8EC00F09BEF01F0828419EC01F0120078
:100338000600F3CF09F0F4CF0AF0F29EF2948CECA9
:1003480001F00AC0F4FF09C0F3FF159211001590DF
:08035800159200012FEF01F0E6
:020000040020DA
:08000000FFFFFFFFFFFFFFFF00
:020000040030CA
:0E0000000088181EFF0181FF0FC00FE00F40A7
:00000001FF
