:020000040000FA
:0400000007EF00F016
:10000800498217ED06F061EF06F00450800B0D6E83
:1000180004500424136E03AE14EF00F016EF00F042
:1000280017EF00F013801350D8B41DEF00F01FEF46
:1000380000F032EF00F01328D8A425EF00F027EFE6
:1000480000F02FEF00F0000E016E000E026E000EA1
:10005800036E000E046E038E3AEF00F0000E016E80
:10006800000E026E000E036E000E046E0850800B28
:100078000D1A08500824126E07AE45EF00F047EF3E
:1000880000F048EF00F012801250D8B44EEF00F0A4
:1000980050EF00F063EF00F01228D8A456EF00F0FC
:1000A80058EF00F060EF00F0000E056E000E066ECF
:1000B800000E076E000E086E078E6BEF00F0000E44
:1000C800056E000E066E000E076E000E086E1250CA
:1000D800D8B471EF00F073EF00F07BEF00F013502D
:1000E800D8A479EF00F07BEF00F085EF00F0000E68
:1000F800016E000E026E000E036E000E046E1DEF00
:1001080002F007500102F3CF18F0F4CF19F018509D
:100118000E6E0F6A106A116A1950146E156A166A03
:10012800176A06500202F3CF18F0F4CF19F01850EE
:100138000E26000E0F221022112219501426000E2E
:1001480015221622172205500302F3CF18F0F4CF18
:1001580019F018500E26000E0F22102211221950E5
:100168001426000E15221622172210C011F00FC0F7
:1001780010F00EC00FF00E6A05500202F3CF18F00F
:10018800F4CF19F018500E2619500F22000E102225
:10019800000E112206500102F3CF18F0F4CF19F027
:1001A80018500E2619500F22000E1022000E112290
:1001B80010C011F00FC010F00EC00FF00E6A0550FD
:1001C8000102F3CF18F0F4CF19F018500E26195089
:1001D8000F22000E1022000E112207500202F3CF48
:1001E80018F0F4CF19F01850142619501522000EE3
:1001F8001622000E172206500302F3CF18F0F4CF90
:1002080019F01850142619501522000E1622000E47
:10021800172207500302F3CF18F0F4CF19F0185043
:10022800096E19500A6E0B6A0C6A0BC00CF00AC0F2
:100238000BF009C00AF0096A095014260A50152261
:100248000B5016220C5017220EC009F00FC00AF0EE
:1002580010C00BF011C00CF0190E38EF01F0D89057
:100268000C320B320A320932E82E33EF01F0095012
:1002780014260A5015220B5016220C50172210C0B3
:1002880011F00FC010F00EC00FF00E6A125013C01C
:1002980009F00A6A0926000E0A22820E0924186E3D
:1002A800FF0E0A20196E6EEF01F0D890143615363D
:1002B8001636173611AE63EF01F065EF01F066EF01
:1002C80001F01480D8900E360F3610361136180605
:1002D800D8A0190616AE73EF01F075EF01F059EFCB
:1002E80001F0000E126E11AE7CEF01F07EEF01F00E
:1002F800A2EF01F0FF0E0E14096EFF0E0F140A6E26
:10030800FF0E10140B6E7F0E11140C6E09500A109C
:100318000B100C10D8B493EF01F095EF01F099EFA2
:1003280001F0010E126EA2EF01F014A09EEF01F091
:10033800A0EF01F0A2EF01F095EF01F01250D8B450
:10034800A8EF01F0AAEF01F0CEEF01F0010E14269C
:10035800000E15221622172217A0B5EF01F0B7EFED
:1003680001F0CEEF01F014C009F015C00AF016C074
:100378000BF017C00CF00C340C320B320A32093275
:1003880009C014F00AC015F00BC016F00CC017F025
:10039800184A192A19BED9EF01F0195008E118288E
:1003A800D8A0D9EF01F0DBEF01F0E5EF01F0000E86
:1003B800146E000E156E800E166E7F0E176E13EFFC
:1003C80002F019BEF2EF01F0195006E11804D8B096
:1003D800F0EF01F0F2EF01F0FEEF01F0000E146E05
:1003E800000E156E000E166E000E176E000E0D6EC6
:1003F80013EF02F018C013F0FF0E1416FF0E1516B7
:100408007F0E1616000E171613A00DEF02F00FEF51
:1004180002F010EF02F0168ED8901330176E0D50C0
:10042800171214C001F015C002F016C003F017C06F
:1004380004F012001D50800B2A6E1D501D24316ED1
:100448001CAE29EF02F02BEF02F02CEF02F0318006
:100458003150D8B432EF02F034EF02F049EF02F035
:100468003128D8A43AEF02F03CEF02F044EF02F052
:10047800000E1A6E000E1B6E000E1C6E000E1D6E16
:100488001C8E000E1D6E51EF02F0000E1A6E000E4B
:100498001B6E000E1C6E000E1D6E2150800B2A1A5A
:1004A80021502124326E20AE5CEF02F05EEF02F0A4
:1004B8005FEF02F032803250D8B465EF02F067EF98
:1004C80002F07CEF02F03228D8A46DEF02F06FEF53
:1004D80002F077EF02F0000E1E6E000E1F6E000E87
:1004E800206E000E216E208E000E216E84EF02F029
:1004F800000E1E6E000E1F6E000E206E000E216E86
:100508001E501F1020102110D8A48DEF02F08FEF7D
:1005180002F0A7EF02F0000E1A6E000E1B6E000E1E
:100528001C6E000E1D6E800E1C127F0E1D122A50AE
:100538001D121AC01AF01BC01BF01CC01CF01DC0F5
:100548001DF0EAEF03F03150D8A4ADEF02F0AFEFA1
:1005580002F0B9EF02F0000E1A6E000E1B6E000ECC
:100568001C6E000E1D6EEAEF03F0325031C022F00F
:10057800236A225E000E235A7F0E22242B6E000E61
:1005880023202C6E1AC026F01BC027F01CC028F0B0
:100598001DC029F0000E1A6E000E1B6E000E1C6E98
:1005A800000E1D6E000E2D6E000E2E6E000E2F6EAC
:1005B800000E306E000E326E1AEF03F03250D8B4CF
:1005C800E8EF02F0EAEF02F001EF03F0D8902636E8
:1005D800273628362936D8901A361B361C361D364B
:1005E80030AEF9EF02F0FBEF02F0FCEF02F01A80F8
:1005F800D8902D362E362F3630361E50265C1F509A
:1006080027582050285821502958D8A00EEF03F019
:1006180010EF03F019EF03F0308C1E50265E1F50C8
:10062800275A2050285A2150295A322A190E326442
:1006380020EF03F022EF03F0E2EF02F0265027103C
:1006480028102910D8B42BEF03F02DEF03F045EF55
:1006580003F02D8045EF03F0D8901A361B361C3670
:100668001D3630AE3AEF03F03CEF03F03DEF03F0F8
:100678001A80D8902D362E362F3630362B06D8A035
:100688002C061CAE4AEF03F04CEF03F030EF03F0FA
:10069800000E326E30AE53EF03F055EF03F079EFF2
:1006A80003F0FF0E2D14226EFF0E2E14236EFF0E84
:1006B8002F14246E7F0E3014256E22502310241020
:1006C8002510D8B46AEF03F06CEF03F070EF03F075
:1006D800010E326E79EF03F01AA075EF03F077EF91
:1006E80003F079EF03F06CEF03F03250D8B47FEFEA
:1006F80003F081EF03F0A5EF03F0010E1A26000EB8
:100708001B221C221D221DA08CEF03F08EEF03F08C
:10071800A5EF03F01AC022F01BC023F01CC024F080
:100728001DC025F02534253224322332223222C03E
:100738001AF023C01BF024C01CF025C01DF02B4A62
:100748002C2A2CBEB0EF03F02C5008E12B28D8A09F
:10075800B0EF03F0B2EF03F0BDEF03F0000E2C6E24
:100768002B68000E1A6E000E1B6E000E1C6E000E1B
:100778001D6E2CBECAEF03F02C5006E12B04D8B036
:10078800C8EF03F0CAEF03F0D8EF03F0000E2C6EA9
:10079800000E2B6E000E1A6E000E1B6E000E1C6EE5
:1007A800000E1D6E000E2A6E2BC031F031A0DFEF57
:1007B80003F0E1EF03F0E4EF03F01C8EE5EF03F044
:1007C8001C9ED89031301D6E9BEF02F01200166E01
:1007D8001650D8B4F2EF03F0F4EF03F016EF04F07C
:1007E80011BEFBEF03F0F9EF03F016EF04F00EC0B3
:1007F80012F00FC013F010C014F011C015F0121E43
:10080800131E141E151E122A000E1322142215225E
:1008180012C018F013C019F014C01AF015C01BF05C
:100828001EEF04F00EC018F00FC019F010C01AF037
:1008380011C01BF00E500F1010101110D8A427EF84
:1008480004F029EF04F033EF04F0000E0E6E000EF2
:100858000F6E000E106E000E116EC4EF04F0960EAF
:10086800176E3DEF04F0172AD8901B321A3219324E
:100878001832000E1814126E000E1914136E000EA2
:100888001A14146EFE0E1B14156E12501310141049
:100898001510D8A452EF04F054EF04F037EF04F029
:1008A80062EF04F0172A010E1826000E19221A22E8
:1008B8001B22D8901B321A3219321832000E181423
:1008C800126E000E1914136E000E1A14146EFF0E19
:1008D8001B14156E1250131014101510D8A477EFAE
:1008E80004F079EF04F056EF04F081EF04F01706F6
:1008F800D890183619361A361B361ABE86EF04F009
:1009080088EF04F090EF04F0020E17608EEF04F009
:1009180090EF04F07BEF04F017B095EF04F097EF39
:1009280004F098EF04F01A9ED890173217C012F00E
:10093800136A146A156A12C015F0146A136A126AE7
:10094800125018121350191214501A1215501B1263
:100958001650D8B4B2EF04F0B4EF04F0BCEF04F0D2
:1009680011BEBBEF04F0B9EF04F0BCEF04F01B8E2E
:1009780018C00EF019C00FF01AC010F01BC011F00B
:100988001200C280C250C30B0409C26EC050C70B0C
:100998001009C06EC08EF00E956E000E936E9268B0
:1009A800000E8C6E2B0ED66ECF0ED76E53EC06F063
:1009B800C282C2B2E2EF04F0E4EF04F0DDEF04F02B
:1009C800C4CF47F0486A47503D6EC350476E3DC09C
:1009D80048F047C081FF030E0A6E096847C001F05E
:1009E80048C002F0000E046E640E036E40EC06F080
:1009F80001C007F002C008F0DDEC05F007C00EF0FA
:100A080008C00FF0106A116A000EEBEC03F00EC07C
:100A18003FF00FC040F010C041F011C042F0000E8E
:100A28001E6E000E1F6EC80E206E420E216E000E46
:100A3800056E400E066E1C0E076E440E086E3FC013
:100A480001F040C002F041C003F042C004F009ECDC
:100A580000F001C01AF002C01BF003C01CF004C073
:100A68001DF01EEC02F01AC033F01BC034F01CC09D
:100A780035F01DC036F05AEC05F033C045F034C0EF
:100A880046F08B8045500D08436E4650D8A0E82AA2
:100A9800D408446E020E446EBC0E436EBC0ED66E75
:100AA800020ED76EDCEF04F007EF00F03534363471
:100AB8003C6E3C50D8A463EF05F065EF05F06FEF8E
:100AC80005F0000E336E000E346E000E356E000E0B
:100AD800366EDCEF05F033C037F034C038F035C07F
:100AE80039F036C03AF0200E7FEF05F0D8903A3250
:100AF800393238323732E82E7AEF05F037503B6E0C
:100B0800358EFF0E3316FF0E3416FF0E3516000E07
:100B18003616960E3C5E3CBE96EF05F094EF05F057
:100B2800ACEF05F03C50800A970FD8B09EEF05F067
:100B3800A0EF05F0A2EF05F065EF05F0D89036328A
:100B48003532343233323C3EA2EF05F0C4EF05F0C3
:100B58001F0E3C64B2EF05F0B4EF05F0BCEF05F0F2
:100B680065EF05F0D89033363436353636363C06E0
:100B78003C50D8A4C2EF05F0C4EF05F0B6EF05F07D
:100B88003B50D8B4CAEF05F0CCEF05F0D4EF05F030
:100B9800361E351E341E336C000E342235223622A2
:100BA80033C033F034C034F035C035F036C036F0D9
:100BB8001200000E0C6E000E0B6E09500A10D8B40D
:100BC800E8EF05F0EAEF05F012EF06F0010E0D6E02
:100BD800F2EF05F0D89009360A360D2A0AAEF7EF7B
:100BE80005F0F9EF05F0EEEF05F0D8900B360C366E
:100BF8000950075C0A500858D8A005EF06F007EF1F
:100C080006F00CEF06F00950075E0A50085A0B80F0
:100C1800D8900A3209320D2EF9EF05F00BC007F013
:100C28000CC008F012000600F2A41DEF06F01FEF3A
:100C380006F03EEF06F083A824EF06F026EF06F054
:100C480033EF06F08C82A60EE82EFED700D08C92E9
:100C58000D0ED66ED40ED76EF2943EEF06F08C824F
:100C6800530EE82EFED700F08C929C0ED66ED10E55
:100C7800D76EF2944992110001500302F3CF05F0A8
:100C8800F4CF06F001500402F35006260250030286
:100C9800F350062605C001F006C002F01200F29ECD
:100CA800D59AD596D550F80B0209D56ED59CF294F5
:100CB800F28AF28CF28ED58E120000EE3FF00A0E08
:100CC800EE6AE806FDE1499049920001C5EF04F09B
:020000040020DA
:08000000FFFFFFFFFFFFFFFF00
:020000040030CA
:0E0000000088181EFF0181FF0FC00FE00F40A7
:00000001FF
